{
  "abi": [
    {
      "inputs": [],
      "stateMutability": "nonpayable",
      "type": "constructor"
    },
    {
      "inputs": [],
      "name": "INITIAL_BALANCE",
      "outputs": [
        {
          "internalType": "uint256",
          "name": "",
          "type": "uint256"
        }
      ],
      "stateMutability": "view",
      "type": "function"
    },
    {
      "inputs": [],
      "name": "TARGET",
      "outputs": [
        {
          "internalType": "address",
          "name": "",
          "type": "address"
        }
      ],
      "stateMutability": "view",
      "type": "function"
    },
    {
      "inputs": [],
      "name": "WBTC",
      "outputs": [
        {
          "internalType": "contract ERC20Like",
          "name": "",
          "type": "address"
        }
      ],
      "stateMutability": "view",
      "type": "function"
    },
    {
      "inputs": [],
      "name": "isSolved",
      "outputs": [
        {
          "internalType": "bool",
          "name": "",
          "type": "bool"
        }
      ],
      "stateMutability": "view",
      "type": "function"
    }
  ],
  "bytecode": {
    "object": "0x60e0604052732260fac5e5542a773aa44fbcfedf7c193bc2c599608052738d90113a1e286a5ab3e496fbd1853f265e5913c660a05234801561004057600080fd5b5060805160a0516040516370a0823160e01b81526001600160a01b0391821660048201529116906370a0823190602401602060405180830381865afa15801561008d573d6000803e3d6000fd5b505050506040513d601f19601f820116820180604052508101906100b191906100b9565b60c0526100d2565b6000602082840312156100cb57600080fd5b5051919050565b60805160a05160c05161026061011360003960008181605601526101bf01526000818160e701526101200152600081816090015261014e01526102606000f3fe608060405234801561001057600080fd5b506004361061004c5760003560e01c806314525bce146100515780634dede3de1461008b57806364d98f6e146100ca578063cc1f2afa146100e2575b600080fd5b6100787f000000000000000000000000000000000000000000000000000000000000000081565b6040519081526020015b60405180910390f35b6100b27f000000000000000000000000000000000000000000000000000000000000000081565b6040516001600160a01b039091168152602001610082565b6100d2610109565b6040519015158152602001610082565b6100b27f000000000000000000000000000000000000000000000000000000000000000081565b6040516370a0823160e01b81526001600160a01b037f0000000000000000000000000000000000000000000000000000000000000000811660048301526000916080917f000000000000000000000000000000000000000000000000000000000000000016906370a0823190602401602060405180830381865afa158015610195573d6000803e3d6000fd5b505050506040513d601f19601f820116820180604052508101906101b991906101ea565b6101e3907f0000000000000000000000000000000000000000000000000000000000000000610203565b1015905090565b6000602082840312156101fc57600080fd5b5051919050565b8181038181111561022457634e487b7160e01b600052601160045260246000fd5b9291505056fea2646970667358221220b655290e192134f03eefd2c5ff3e4004314db303e5a8c9877b03ddf3a9b48de364736f6c63430008100033",
    "linkReferences": {}
  },
  "methodIdentifiers": {
    "INITIAL_BALANCE()": "14525bce",
    "TARGET()": "cc1f2afa",
    "WBTC()": "4dede3de",
    "isSolved()": "64d98f6e"
  },
  "id": 0
}