{
  "abi": [
    {
      "inputs": [
        {
          "internalType": "uint256",
          "name": "guess",
          "type": "uint256"
        }
      ],
      "name": "solve",
      "outputs": [],
      "stateMutability": "nonpayable",
      "type": "function"
    },
    {
      "inputs": [],
      "name": "solved",
      "outputs": [
        {
          "internalType": "bool",
          "name": "",
          "type": "bool"
        }
      ],
      "stateMutability": "view",
      "type": "function"
    }
  ],
  "bytecode": {
    "object": "0x60806040526000805460ff1916905534801561001a57600080fd5b5060d2806100296000396000f3fe6080604052348015600f57600080fd5b506004361060325760003560e01c8063799320bb146037578063b8b8d35a146057575b600080fd5b60005460439060ff1681565b604051901515815260200160405180910390f35b606660623660046084565b6068565b005b60048114607457600080fd5b506000805460ff19166001179055565b600060208284031215609557600080fd5b503591905056fea26469706673582212200d6c273e652553bca9a4d40ebffefc51eba6bc563706742f39853fd37e4f0e8a64736f6c634300080f0033",
    "linkReferences": {}
  },
  "methodIdentifiers": {
    "solve(uint256)": "b8b8d35a",
    "solved()": "799320bb"
  },
  "id": 0
}