{
  "abi": [
    {
      "inputs": [],
      "stateMutability": "payable",
      "type": "constructor"
    },
    {
      "inputs": [],
      "name": "isSolved",
      "outputs": [
        {
          "internalType": "bool",
          "name": "",
          "type": "bool"
        }
      ],
      "stateMutability": "view",
      "type": "function"
    },
    {
      "inputs": [],
      "name": "mcHelper",
      "outputs": [
        {
          "internalType": "contract MasterChefHelper",
          "name": "",
          "type": "address"
        }
      ],
      "stateMutability": "view",
      "type": "function"
    },
    {
      "inputs": [],
      "name": "weth",
      "outputs": [
        {
          "internalType": "contract WETH9",
          "name": "",
          "type": "address"
        }
      ],
      "stateMutability": "view",
      "type": "function"
    }
  ],
  "bytecode": {
    "object": "0x60a06040526040516100109061013b565b604051809103906000f08015801561002c573d6000803e3d6000fd5b506001600160a01b03166080816001600160a01b03168152505073c02aaa39b223fe8d0a0e5c4f27ead9083c756cc26001600160a01b031663d0e30db0678ac7230489e800006040518263ffffffff1660e01b81526004016000604051808303818588803b15801561009d57600080fd5b505af11580156100b1573d6000803e3d6000fd5b505060805160405163a9059cbb60e01b81526001600160a01b039091166004820152678ac7230489e80000602482015273c02aaa39b223fe8d0a0e5c4f27ead9083c756cc2935063a9059cbb92506044019050600060405180830381600087803b15801561011e57600080fd5b505af1158015610132573d6000803e3d6000fd5b50505050610148565b61097f8061031983390190565b6080516101b161016860003960008181609b015260d401526101b16000f3fe608060405234801561001057600080fd5b50600436106100415760003560e01c80633fc8cef31461004657806364d98f6e1461007e578063fdcc2a6e14610096575b600080fd5b61006173c02aaa39b223fe8d0a0e5c4f27ead9083c756cc281565b6040516001600160a01b0390911681526020015b60405180910390f35b6100866100bd565b6040519015158152602001610075565b6100617f000000000000000000000000000000000000000000000000000000000000000081565b6040516370a0823160e01b81526001600160a01b037f000000000000000000000000000000000000000000000000000000000000000016600482015260009073c02aaa39b223fe8d0a0e5c4f27ead9083c756cc2906370a0823190602401602060405180830381865afa158015610138573d6000803e3d6000fd5b505050506040513d601f19601f8201168201806040525081019061015c9190610162565b15919050565b60006020828403121561017457600080fd5b505191905056fea2646970667358221220a727d46cf573611d98a66c19c1cd5d2936981a4557664c29fe65b99c74e7e73064736f6c63430008100033608060405234801561001057600080fd5b5061095f806100206000396000f3fe608060405234801561001057600080fd5b50600436106100415760003560e01c806303e1961814610046578063f887ea401461005b578063fb1db27814610092575b600080fd5b6100596100543660046106c5565b6100ad565b005b61007673d9e1ce17f2641f24ae83637ab66a2cca9c378b9f81565b6040516001600160a01b03909116815260200160405180910390f35b61007673c2edad668740f1aa35e4d8f227fb8e17dca888cd81565b604051631526fe2760e01b81526004810185905260009073c2edad668740f1aa35e4d8f227fb8e17dca888cd90631526fe27906024016080604051808303816000875af1158015610102573d6000803e3d6000fd5b505050506040513d601f19601f820116820180604052508101906101269190610702565b50505090506000816001600160a01b0316630dfe16816040518163ffffffff1660e01b81526004016020604051808303816000875af115801561016d573d6000803e3d6000fd5b505050506040513d601f19601f820116820180604052508101906101919190610741565b90506000826001600160a01b031663d21220a76040518163ffffffff1660e01b81526004016020604051808303816000875af11580156101d5573d6000803e3d6000fd5b505050506040513d601f19601f820116820180604052508101906101f99190610741565b60405163095ea7b360e01b815273d9e1ce17f2641f24ae83637ab66a2cca9c378b9f600482015260001960248201529091506001600160a01b0387169063095ea7b390604401600060405180830381600087803b15801561025957600080fd5b505af115801561026d573d6000803e3d6000fd5b505060405163095ea7b360e01b815273d9e1ce17f2641f24ae83637ab66a2cca9c378b9f600482015260001960248201526001600160a01b038516925063095ea7b39150604401600060405180830381600087803b1580156102ce57600080fd5b505af11580156102e2573d6000803e3d6000fd5b505060405163095ea7b360e01b815273d9e1ce17f2641f24ae83637ab66a2cca9c378b9f600482015260001960248201526001600160a01b038416925063095ea7b39150604401600060405180830381600087803b15801561034357600080fd5b505af1158015610357573d6000803e3d6000fd5b50506040516323b872dd60e01b8152336004820152306024820152604481018890526001600160a01b03891692506323b872dd9150606401600060405180830381600087803b1580156103a957600080fd5b505af11580156103bd573d6000803e3d6000fd5b505050506103d886836002886103d39190610765565b6103fc565b6103e886826103d3600289610765565b6103f382828661050b565b50505050505050565b60408051600280825260608201835260009260208301908036833701905050905083816000815181106104315761043161079d565b60200260200101906001600160a01b031690816001600160a01b03168152505082816001815181106104655761046561079d565b6001600160a01b03909216602092830291909101909101526040516338ed173960e01b815273d9e1ce17f2641f24ae83637ab66a2cca9c378b9f906338ed1739906104bd9085906000908690309042906004016107b3565b6000604051808303816000875af11580156104dc573d6000803e3d6000fd5b505050506040513d6000823e601f3d908101601f191682016040526105049190810190610824565b5050505050565b6040516370a0823160e01b815230600482015260009073d9e1ce17f2641f24ae83637ab66a2cca9c378b9f9063e8e3370090869086906001600160a01b038316906370a0823190602401602060405180830381865afa158015610572573d6000803e3d6000fd5b505050506040513d601f19601f8201168201806040525081019061059691906108e2565b6040516370a0823160e01b81523060048201526001600160a01b038916906370a0823190602401602060405180830381865afa1580156105da573d6000803e3d6000fd5b505050506040513d601f19601f820116820180604052508101906105fe91906108e2565b6040516001600160e01b031960e087901b1681526001600160a01b0394851660048201529390921660248401526044830152606482015260006084820181905260a48201523360c48201524260e4820152610104016060604051808303816000875af1158015610672573d6000803e3d6000fd5b505050506040513d601f19601f8201168201806040525081019061069691906108fb565b92505050818110156106a757600080fd5b50505050565b6001600160a01b03811681146106c257600080fd5b50565b600080600080608085870312156106db57600080fd5b8435935060208501356106ed816106ad565b93969395505050506040820135916060013590565b6000806000806080858703121561071857600080fd5b8451610723816106ad565b60208601516040870151606090970151919890975090945092505050565b60006020828403121561075357600080fd5b815161075e816106ad565b9392505050565b60008261078257634e487b7160e01b600052601260045260246000fd5b500490565b634e487b7160e01b600052604160045260246000fd5b634e487b7160e01b600052603260045260246000fd5b600060a082018783526020878185015260a0604085015281875180845260c086019150828901935060005b818110156108035784516001600160a01b0316835293830193918301916001016107de565b50506001600160a01b03969096166060850152505050608001529392505050565b6000602080838503121561083757600080fd5b825167ffffffffffffffff8082111561084f57600080fd5b818501915085601f83011261086357600080fd5b81518181111561087557610875610787565b8060051b604051601f19603f8301168101818110858211171561089a5761089a610787565b6040529182528482019250838101850191888311156108b857600080fd5b938501935b828510156108d6578451845293850193928501926108bd565b98975050505050505050565b6000602082840312156108f457600080fd5b5051919050565b60008060006060848603121561091057600080fd5b835192506020840151915060408401519050925092509256fea264697066735822122005009c92c80d9f53a2a2187e207c1bfc5a118072a6717cdfe34c9c6230bb5c0564736f6c63430008100033",
    "linkReferences": {}
  },
  "methodIdentifiers": {
    "isSolved()": "64d98f6e",
    "mcHelper()": "fdcc2a6e",
    "weth()": "3fc8cef3"
  },
  "id": 1
}